{
  "address": "0x4742FD1862E94dc74AeD62A96B6374E68e658f80",
  "abi": [
    {
      "inputs": [],
      "stateMutability": "nonpayable",
      "type": "constructor"
    },
    {
      "anonymous": false,
      "inputs": [
        {
          "indexed": false,
          "internalType": "address",
          "name": "instance",
          "type": "address"
        }
      ],
      "name": "Deployed",
      "type": "event"
    },
    {
      "inputs": [],
      "name": "instance",
      "outputs": [
        {
          "internalType": "contract BuiltByANoob",
          "name": "",
          "type": "address"
        }
      ],
      "stateMutability": "view",
      "type": "function"
    },
    {
      "inputs": [],
      "name": "isSolved",
      "outputs": [
        {
          "internalType": "bool",
          "name": "",
          "type": "bool"
        }
      ],
      "stateMutability": "view",
      "type": "function"
    }
  ],
  "transactionHash": "0x7dcb5d5f92e2c433691b1beeb548c8ac4ad1db5508816ebb4ea78de29d93c1b9",
  "args": [],
  "numDeployments": 1,
  "solcInputHash": "41ffeb281b20b007621397302f2675e8",
  "bytecode": "0x608060405234801561001057600080fd5b50600180546001600160a01b0319163317905560405161002f906100a6565b604051809103906000f08015801561004b573d6000803e3d6000fd5b50600080546001600160a01b0319166001600160a01b0392831617908190556040805191909216815290517ff40fcec21964ffb566044d083b4073f29f7f7929110ea19e1b3ebe375d89055e916020908290030190a16100b3565b610dcd8061020283390190565b610140806100c26000396000f3fe608060405234801561001057600080fd5b50600436106100365760003560e01c8063022ec0951461003b57806364d98f6e1461005f575b600080fd5b61004361007b565b604080516001600160a01b039092168252519081900360200190f35b61006761008a565b604080519115158252519081900360200190f35b6000546001600160a01b031681565b60008060009054906101000a90046001600160a01b03166001600160a01b03166312c8052f6040518163ffffffff1660e01b815260040160206040518083038186803b1580156100d957600080fd5b505afa1580156100ed573d6000803e3d6000fd5b505050506040513d602081101561010357600080fd5b505190509056fea26469706673582212202ee44bd24739ddb7be2970f5302997ce04e350e74cf5b6dcc0f54dc45091ee6764736f6c63430007020033608060405234801561001057600080fd5b50610dad806100206000396000f3fe608060405234801561001057600080fd5b506004361061006c5760003560e01c80628372481461007157806312c8052f1461007b5780631cd7b64f14610097578063234027c61461009f5780639c27ffc3146101e4578063f3b5cf3714610204578063f956bd4d14610224575b600080fd5b61007961024b565b005b6100836102d6565b604080519115158252519081900360200190f35b610079610301565b610079600480360360a08110156100b557600080fd5b81359190810190604081016020820135600160201b8111156100d657600080fd5b8201836020820111156100e857600080fd5b803590602001918460018302840111600160201b8311171561010957600080fd5b91908080601f01602080910402602001604051908101604052809392919081815260200183838082843760009201919091525092956001600160a01b0385351695602086013595919450925060608101915060400135600160201b81111561017057600080fd5b82018360208201111561018257600080fd5b803590602001918460018302840111600160201b831117156101a357600080fd5b91908080601f0160208091040260200160405190810160405280939291908181526020018383808284376000920191909152509295506103b4945050505050565b610079600480360360208110156101fa57600080fd5b503560ff16610616565b6100796004803603602081101561021a57600080fd5b503560ff1661072c565b6100796004803603602081101561023a57600080fd5b50356001600160f81b031916610804565b6002805460ff198116600160ff928316810190921617909155805481908190603f811680603e81146102975760028301845560018316610289578192505b6001600284040193506102af565b600084815260209081902060ff198516905560419094555b505050038154600116156102d25790600052602060002090602091828204019190065b5050565b600254600090600460ff909116108015906102fc57506102f461088a565b6410b57e6da0145b905090565b6002805460ff8082166001908101821660ff199093169290921790925580548190603f811680603e811461034f5760028301845560018316610341578192505b600160028404019350610367565b600084815260209081902060ff198516905560419094555b5050506001900381546001161561038d5790600052602060002090602091828204019190065b909160f81b90919091601f036101000a81548160ff02191690600160f81b84040217905550565b8484600080600083516041146103c957600080fd5b50505060208101516040820151604183015160ff1686610430576040805162461bcd60e51b815260206004820181905260248201527f596f75206e65656420746f2062657420736f6d657468696e672e2043276d6f6e604482015290519081900360640190fd5b600286511115610486576040805162461bcd60e51b815260206004820152601c60248201527b1bdb9b1e480c88189e5d195cc8185d081b5bdcdd08185b1b1bddd95960221b604482015290519081900360640190fd5b61048e610c49565b87815242602082019081526001600160a01b038a8116604084018181526000805460018101825590805285517f290decd9548b62a8d60345a988386fc84ba6bc95484008f6362f93160ef3e56360039092029182015593517f290decd9548b62a8d60345a988386fc84ba6bc95484008f6362f93160ef3e564850155517f290decd9548b62a8d60345a988386fc84ba6bc95484008f6362f93160ef3e56590930180546001600160a01b031916939092169290921790556105519033308b610914565b6002805460ff191660019081179091558751610572919060208a0190610c73565b5050600260019054906101000a90046001600160a01b03166001600160a01b031660018683868660405160008152602001604052604051808581526020018460ff1681526020018381526020018281526020019450505050506020604051602081039080840390855afa1580156105ed573d6000803e3d6000fd5b505050602060405103516001600160a01b03161461060a57600080fd5b50505050505050505050565b60018054600260001961010083851615020190911604116106685760405162461bcd60e51b8152600401808060200182810382526021815260200180610d076021913960400191505060405180910390fd5b6001805460ff831691906002600019610100838516150281019092160490810190811061069157fe5b8154600116156106b05790600052602060002090602091828204019190065b9054600180549190921a600160f81b026001600160f81b03191690921c9160028183161561010002600019908101909216049081019081106106ee57fe5b81546001161561070d5790600052602060002090602091828204019190065b601f036101000a81548160ff02191690600160f81b8404021790555050565b600180546002600019610100838516150201909116041161077e5760405162461bcd60e51b8152600401808060200182810382526021815260200180610d076021913960400191505060405180910390fd5b6001805460ff83169190600260001961010083851615028101909216049081019081106107a757fe5b8154600116156107c65790600052602060002090602091828204019190065b9054600180549190921a600160f81b026001600160f81b03191690921b9160028183161561010002600019908101909216049081019081106106ee57fe5b60018054600f60f81b831691906002600019610100838516150281019092160490810190811061083057fe5b81546001161561084f5790600052602060002090602091828204019190065b9054600180549190921a600160f81b02600f60fc1b16929092179160028183161561010002600019908101909216049081019081106106ee57fe5b60008060005b600180546001816001161561010002031660029004905081101561090e576001818154600181600116156101000203166002900481106108cc57fe5b8154600116156108eb5790600052602060002090602091828204019190065b9054901a600160f81b0260f81c60ff16600883901b019150806001019050610890565b50905090565b604080516001600160a01b0380861660248301528416604482015260648082018490528251808303909101815260849091019091526020810180516001600160e01b03166323b872dd60e01b17905261096e908590610974565b50505050565b60606109c9826040518060400160405280602081526020017f5361666545524332303a206c6f772d6c6576656c2063616c6c206661696c6564815250856001600160a01b0316610a2a9092919063ffffffff16565b805190915015610a25578080602001905160208110156109e857600080fd5b5051610a255760405162461bcd60e51b815260040180806020018281038252602a815260200180610d4e602a913960400191505060405180910390fd5b505050565b6060610a398484600085610a43565b90505b9392505050565b606082471015610a845760405162461bcd60e51b8152600401808060200182810382526026815260200180610d286026913960400191505060405180910390fd5b610a8d85610b9f565b610ade576040805162461bcd60e51b815260206004820152601d60248201527f416464726573733a2063616c6c20746f206e6f6e2d636f6e7472616374000000604482015290519081900360640190fd5b60006060866001600160a01b031685876040518082805190602001908083835b60208310610b1d5780518252601f199092019160209182019101610afe565b6001836020036101000a03801982511681845116808217855250505050505090500191505060006040518083038185875af1925050503d8060008114610b7f576040519150601f19603f3d011682016040523d82523d6000602084013e610b84565b606091505b5091509150610b94828286610ba5565b979650505050505050565b3b151590565b60608315610bb4575081610a3c565b825115610bc45782518084602001fd5b8160405162461bcd60e51b81526004018080602001828103825283818151815260200191508051906020019080838360005b83811015610c0e578181015183820152602001610bf6565b50505050905090810190601f168015610c3b5780820380516001836020036101000a031916815260200191505b509250505060405180910390fd5b6040518060600160405280600081526020016000815260200160006001600160a01b031681525090565b828054600181600116156101000203166002900490600052602060002090601f016020900481019282601f10610cb457805160ff1916838001178555610ce1565b82800160010185558215610ce1579182015b82811115610ce1578251825591602001919060010190610cc6565b50610ced929150610cf1565b5090565b5b80821115610ced5760008155600101610cf256fe596f75206e65656420746f20777269746520736f6d657468696e67206669727374416464726573733a20696e73756666696369656e742062616c616e636520666f722063616c6c5361666545524332303a204552433230206f7065726174696f6e20646964206e6f742073756363656564a2646970667358221220db11e83485f5518ccc70daeb7c94ef179bae110f7df44ba4ce822155978a4c0a64736f6c63430007020033",
  "devdoc": {
    "kind": "dev",
    "methods": {},
    "version": 1
  },
  "userdoc": {
    "kind": "user",
    "methods": {},
    "version": 1
  },
  "storageLayout": {
    "storage": [
      {
        "astId": 2015,
        "contract": "contracts/Setup.sol:Setup",
        "label": "instance",
        "offset": 0,
        "slot": "0",
        "type": "t_contract(BuiltByANoob)1786"
      },
      {
        "astId": 2017,
        "contract": "contracts/Setup.sol:Setup",
        "label": "originalOwner",
        "offset": 0,
        "slot": "1",
        "type": "t_address"
      }
    ],
    "types": {
      "t_address": {
        "encoding": "inplace",
        "label": "address",
        "numberOfBytes": "20"
      },
      "t_contract(BuiltByANoob)1786": {
        "encoding": "inplace",
        "label": "contract BuiltByANoob",
        "numberOfBytes": "20"
      }
    }
  }
}